:100000000C942A000C94390E0C94650E0C94910EED
:100010000C94A6120C94AE110C94FA120C94541277
:100020000C947D120C945B110C9400120C94091129
:100030000C9447000C9447000C9447000C94470024
:100040000C94BC0A0C9447000C9447000C94470095
:100050000C94470011241FBECFE5D8E0DEBFCDBF12
:1000600011E0A0E6B0E0ECE0F9E302C005900D92EB
:10007000A23DB107D9F712E0A2EDB1E001C01D9297
:10008000AC31B107E1F70E944E000C94841C0C9433
:1000900000008FB9779BFECF8FB108956C986E9A50
:1000A00087B38F7487BBBE9AD09A9AE024EC39E06C
:1000B0009FB9779BFECF8FB1F9013197F1F781306E
:1000C000B9F7D89AF5CFCF93DF93EC011092D30113
:1000D0005EC0F0E0EE0FFF1FE05AFF4F80816181AC
:1000E00040E00E94080C892B09F05BC01092D201FD
:1000F00039C0F0E0EE0FFF1FEC58FF4F80816181A7
:10010000AE010E94740C892B09F04BC088818823B2
:1001100021F50AC0F0E0EE0FFF1FEC58FF4F808181
:100120006181AE010E94740C8881E091D201882324
:1001300089F32091D3018E2F90E0FC0143E0EE0F74
:10014000FF1F4A95E1F7880F991FE80FF91FE20F8B
:10015000F11DE458FF4F808120C08091D2018F5F54
:100160008093D201E091D201E43018F2E091D30102
:10017000F0E0EE0FFF1FE05AFF4F8081618141E008
:100180000E94080C8091D3018F5F8093D301E0918E
:10019000D301EA3008F49DCF8FEF888320E030E070
:1001A00002C021E030E0C901DF91CF9108952F9284
:1001B0003F924F925F926F927F928F929F92AF92F7
:1001C000BF92CF92DF92EF92FF920F931F93DF9334
:1001D000CF9300D00F92CDB7DEB71091D40100912C
:1001E000D5016090D6015090D7014090D801309051
:1001F000D901F090DA01E090DB0181E063E041E0B9
:100200000E949C0B9C01182B032B1093D40100938C
:10021000D5016092D6015092D7014092D801309218
:10022000D901F092DA01E092DB0181E064E041E083
:100230000E949C0B9C01F3E0220F331FFA95E1F71B
:10024000122BD32ED02A1093D401D092D5016092D4
:10025000D6015092D7014092D8013092D901F09244
:10026000DA01E092DB0181E065E041E00E949C0B55
:100270009C01E6E0220F331FEA95E1F7122BD32A07
:100280001093D401D092D5016092D6015092D7013B
:100290004092D8013092D901F092DA01E092DB016C
:1002A00081E066E041E00E949C0B9C0140E050E050
:1002B00060E070E080E090E009E00E94A213C22EAE
:1002C000B32EA42E952E862E772EC12ABD28A628C1
:1002D000952884287328F82AE92AC092D401B0927C
:1002E000D501A092D6019092D7018092D801709248
:1002F000D901F092DA01E092DB0181E067E041E0B0
:100300000E949C0B9C0140E050E060E070E080E0C7
:1003100090E00CE00E94A213122FD32E642E552ED3
:10032000462E372E1C29DB286A28592848283728CA
:10033000F82AE92A1093D401D092D5016092D6010F
:100340005092D7014092D8013092D901F092DA014F
:10035000E092DB0182E060E041E00E949C0B9C01A6
:1003600040E050E060E070E080E090E00FE00E944C
:10037000A213C22EB32EA42E952E862E772EC12A1E
:10038000BD28A628952884287328F82AE92AC0922F
:10039000D401B092D501A092D6019092D70180925B
:1003A000D8017092D901F092DA01E092DB0182E08B
:1003B00061E041E00E949C0B9C0140E050E060E065
:1003C00070E080E090E002E10E94A213122FD32E91
:1003D000642E552E462E372E1C29DB286A285928D4
:1003E00048283728F82AE92A1093D401D092D50159
:1003F0006092D6015092D7014092D8013092D90133
:10040000F092DA01E092DB0182E062E041E00E94DA
:100410009C0B9C0140E050E060E070E080E090E0E8
:1004200005E10E94A213822E732E242E812A7D289C
:100430002628252F25292983E62FE429EA83F72F6B
:10044000F329FB83F82AE92A8092D4017092D5011E
:100450002092D6012093D701E093D801F093D901DF
:10046000F092DA01E092DB0182E063E041E00E9479
:100470009C0B9C0140E050E060E070E080E090E088
:1004800008E10E94A213122FD32EC42EB52EA62E41
:10049000972E1829D728C2282981B22AEA81AE2AA4
:1004A000FB819F2AF82AE92A1093D401D092D50122
:1004B000C092D601B092D701A092D8019092D901F2
:1004C000F092DA01E092DB0182E064E041E00E9418
:1004D0009C0B9C0140E050E060E070E080E090E028
:1004E0000BE10E94A213122B1093D401D32AD092B5
:1004F000D501C42AC092D601B52AB092D701A62A46
:10050000A092D801972A9092D901F82AF092DA01A4
:10051000E92AE092DB0181E063E041E00E94080CFF
:1005200081E064E041E00E94080C81E065E041E088
:100530000E94080C81E066E041E00E94080C81E026
:1005400067E041E00E94080C82E060E041E00E9428
:10055000080C82E061E041E00E94080C82E062E069
:1005600041E00E94080C82E063E041E00E94080C38
:1005700082E064E041E00E94080C8090D401709019
:10058000D5016090D6015090D7014090D8013090AD
:10059000D901A090DA019090DB0180E067E040E0B3
:1005A0000E949C0B9C0140E050E060E070E080E025
:1005B00090E00EE10E94A213122FF32EE42ED52E0E
:1005C000C62EB72E1829F728E628D528C428B32820
:1005D000A82A992A1093D401F092D501E092D6016D
:1005E000D092D701C092D801B092D901A092DA017D
:1005F0009092DB0181E060E040E00E949C0B9C0156
:1006000040E050E060E070E080E090E001E20E94B5
:10061000A213822E732E642E552E462E372E812A3B
:100620007F286E285D284C283B28A82A992A80928A
:10063000D4017092D5016092D6015092D7014092B8
:10064000D8013092D901A092DA019092DB0181E0C9
:1006500061E040E00E949C0B9C0140E050E060E0C3
:1006600070E080E090E004E20E94A213122FF32ECB
:10067000E42ED52EC62EB72E1829F728E628D52821
:10068000C428B328A82A992A1093D401F092D5013E
:10069000E092D601D092D701C092D801B092D90190
:1006A000A092DA019092DB0181E062E040E00E94DA
:1006B0009C0B9C0140E050E060E070E080E090E046
:1006C00007E20E94A213122B1093D401F32AF09296
:1006D000D501E42AE092D601D52AD092D701C62AC4
:1006E000C092D801B72AB092D901A82AA092DA0103
:1006F000992A9092DB0180E067E041E00E94080CBB
:1007000081E060E041E00E94080C81E061E041E0AE
:100710000E94080C81E062E041E00E94080C909089
:10072000D401A090D501B090D601C090D701D0904F
:10073000D801E090D901F090DA011091DB01662434
:100740007724292D3A2D4B2D5C2D6D2D7E2D8F2D4F
:10075000912F062D0E942313277019F021E030E01D
:100760000AC083E090E0680E791E9AE2691671046F
:1007700041F720E030E0C9010F900F900F90CF912A
:10078000DF911F910F91FF90EF90DF90CF90BF907E
:10079000AF909F908F907F906F905F904F903F9021
:1007A0002F9008952F926F927F928F929F92AF9287
:1007B000BF92CF92DF92EF92FF920F931F93DF933E
:1007C000CF93CDB7DEB728970FB6F894DEBF0FBE34
:1007D000CDBF282E82E061E040E00E94080C8C0131
:1007E00082E062E040E00E94080C6C01422D4295DC
:1007F000417082E063E00E94080C3C01422D42956A
:100800004695417082E064E00E94080C5C01422D34
:10081000429546954695417082E065E00E94080C3D
:100820007C01422D441F4427441F82E066E00E9461
:10083000080CF3E0CC0CDD1CFA95E1F7960140E0E2
:1008400050E0E6E0660C771CEA95E1F788249924ED
:100850002629372948295929380188249924262905
:10086000372948295929CC24DD2479E0AA0CBB1C5E
:10087000CC1CDD1C7A95D1F72A293B294C295D290E
:1008800000E010E06CE0EE0CFF1C001F111F6A95E9
:10089000D1F72E293F29402B512BA0E0B0E01FE0DB
:1008A000880F991FAA1FBB1F1A95D1F7282B392B28
:1008B0004A2B5B2B29833A834B835C838091DC0139
:1008C000882309F46DC082E062E041E00E94080CD8
:1008D0000AEF10E0C8010197F1F782E062E040E022
:1008E0000E94080CC8010197F1F7422D417082E087
:1008F00063E00E94080C7C01422D4695417082E025
:1009000064E00E94080C3C0126942694422D41701C
:1009100082E065E00E94080C5C01269488248394A0
:10092000282082E066E0422D0E94080CF6E0EE0CE2
:10093000FF1CFA95E1F700E010E088249924E9E033
:10094000660C771C881C991CEA95D1F7E628F728D5
:100950000829192929813A814B815C812E293F2957
:10096000402B512BCC24DD247CE0AA0CBB1CCC1CDE
:10097000DD1C7A95D1F72A293B294C295D29A0E075
:10098000B0E06FE0880F991FAA1FBB1F6A95D1F7CF
:10099000282B392B4A2B5B2B29833A834B835C838F
:1009A00020E030E089819A81AB81BC81022E04C0B5
:1009B000B695A795979587950A94D2F7877090700A
:1009C000A070B0700097A105B10519F021E030E0EA
:1009D00015C02D5F3F4F2231310521F782E062E0E3
:1009E00041E00E94080C84EC99E00197F1F782E065
:1009F00062E040E00E94080C20E030E0C901289647
:100A00000FB6F894DEBF0FBECDBFCF91DF911F911F
:100A10000F91FF90EF90DF90CF90BF90AF909F909D
:100A20008F907F906F902F9008951F93182F82E0E2
:100A300060E040E00E94080C892B19F021E030E0D2
:100A400004C0812F0E94D2039C01C9011F91089507
:100A5000813019F4862F805807C0823019F023E0C6
:100A600030E005C0862F80540E9415059C01C90105
:100A700008951F93182F82E060E040E00E94080C68
:100A8000892B19F021E030E004C0812F0E94D203AD
:100A90009C01C9011F91089581E00E9439050895C4
:100AA0001F93182F82E060E041E00E94080C892B20
:100AB00019F021E030E004C0812F0E94D2039C0194
:100AC000C9011F910895EF92FF920F931F93CF9347
:100AD000DF937C01162F042F80E40E941505C12F9F
:100AE000D0E0A3E0CC0FDD1FAA95E1F710E006C02F
:100AF000EE0DFF1D80810E9450051F5FE12FF0E089
:100B0000EC17FD07ACF3083531F48FE80E941505AA
:100B100084E00E94150580E090E0DF91CF911F9165
:100B20000F91FF90EF9008952F923F924F925F9216
:100B30006F927F929F92AF92BF92CF92DF92EF928D
:100B4000FF920F931F93CF93DF935B016C0182E0C1
:100B500060E041E00E94080C1C01C601B50120E0E4
:100B600030E040E050E00E949D17882329F480E3A4
:100B70000E94D2031C01F0C0C601B5010E941B19DE
:100B80002B013C01C601B50120E030E040E050E01F
:100B90000E945D1887FD03C0830172010AC08DE2C7
:100BA0000E945005EE24FF248701E418F508060989
:100BB0001709C601B50120E030E040E85FE30E947C
:100BC0005D18882354F4C601B50120E030E040E010
:100BD00050E00E94FD171816A4F0C601B50120E0F0
:100BE00030E040E85FEB0E94FD1718166CF4C60178
:100BF000B50120E030E040E050E00E945D1888231D
:100C00001CF480E30E945005C4EAD0E099249A9431
:100C100016C09394C801B7012AE030E040E050E0EC
:100C20000E94101C6993C801B7012AE030E040E03F
:100C300050E00E94101CC901DA017C018D011E14D4
:100C40001F04100611063CF0C92DDD27C7FDD09505
:100C5000CC55DF4F0BC021143104D9F2F5CF888178
:100C6000805D0E94D2031C019A9421978FEF981601
:100C700019F02114310499F3C301B2010E94BD1887
:100C80009B01AC01C601B5010E9499157B018C0145
:100C900020E030E040E050E00E94CD17882309F4C6
:100CA0005BC08EE20E94D203C801B70120E030E0B1
:100CB00040E050E00E945D18882324F417FB109553
:100CC00017F910959394892D992787FD90959A94FB
:100CD00037EAC32E30E0D32EC81AD90ACAE0D0E0D2
:100CE000BB249394BE0180E090E00E946F199B01A9
:100CF000AC01C801B7010E94F7150E941B192AE038
:100D000030E040E050E00E94101CF6016083CE010C
:100D1000880F991FB3E0CC0FDD1FBA95E1F7C80F1C
:100D2000D91FB3940894C108D108F4E0BF16C9F6DE
:100D3000C92DDD27C7FDD095CC55DF4F0AC088816E
:100D4000805D0E94D2031C019A9421978FEF981620
:100D500019F02114310499F3C101DF91CF911F9152
:100D60000F91FF90EF90DF90CF90BF90AF909F904A
:100D70007F906F905F904F903F902F900895FF92DB
:100D80000F931F93CF93DF938C0182E060E041E0EB
:100D90000E94080C892BC9F4FF240BC0C00FD11F7F
:100DA00088810E94D203892B19F021E030E00FC026
:100DB000F394CF2DD0E0F80101900020E9F73197AE
:100DC000E01BF10BCE17DF0748F320E030E0C9014C
:100DD000DF91CF911F910F91FF9008952F923F9235
:100DE0004F925F926F927F928F929F92AF92BF923B
:100DF000CF92DF92EF92FF920F931F93DF93CF93E7
:100E0000CDB7DEB76C970FB6F894DEBF0FBECDBF7F
:100E100080E197E20197F1F782E060E041E00E9413
:100E20009C0B9A8F898F82E061E041E00E949C0BCD
:100E30001C0182E062E041E00E949C0B5C0182E0C8
:100E400063E041E00E949C0B988F8F8B82E064E00E
:100E500041E00E949C0B9E8B8D8B82E065E041E01F
:100E60000E949C0B9C8B8B8B82E066E041E00E9491
:100E70009C0B9A8B898B80E20E943905988B8F8717
:100E800080E20E9439059E878D8780E80E9439059F
:100E90009C878B870AEF10E0C8010197F1F780E08B
:100EA0000E9439059A87898780EF0E9439059887C3
:100EB0008F83C8010197F1F780E00E9439059C8F6C
:100EC0008B8F80E10E9439059E838D8384EF91E0B2
:100ED0000197F1F780E00E9439059C838B8380E6BF
:100EE0000E9439059A83898353E0220C331C5A955A
:100EF000E1F746E0AA0CBB1C4A95E1F72A28A32C8F
:100F0000AB28E98DFA8D9F012E2AA32A2F89388DCF
:100F100040E050E060E070E080E090E009E00E9496
:100F2000A213B42EC52ED62EE72EF82E192F222A64
:100F3000A32AED89FE899F0140E050E060E070E067
:100F400080E090E00CE00E94A213222AA32AB42A97
:100F5000C52AD62AE72AF82A192B2B893C8940E092
:100F600050E060E070E080E090E00FE00E94A213AB
:100F7000222AA32AB42AC52AD62AE72AF82A192B14
:100F8000E989FA899F0140E050E060E070E080E08C
:100F900090E002E10E94A213222AA32AB42AC52AC1
:100FA000D62AE72AF82A192B2F85388940E050E005
:100FB00060E070E080E090E005E10E94A213222A48
:100FC000A32AB42AC52AD62AE72AF82A192BED859E
:100FD000FE859F0140E050E060E070E080E090E03E
:100FE00008E10E94A213222AA32AB42AC52AD62ADB
:100FF000E72AF82A192B2B853C8540E050E060E079
:1010000070E080E090E00BE10E94A213222AA32A64
:10101000B42AC52AD62AE72AF82A192BE985FA859F
:101020009F0140E050E060E070E080E090E00EE181
:101030000E94A213222AA32AB42AC52AD62AE72A62
:10104000F82A192B2F81388540E050E060E070E0ED
:1010500080E090E001E20E94A213222AA32AB42A8F
:10106000C52AD62AE72AF82A192BEB8DFC8D9F0179
:1010700040E050E060E070E080E090E004E20E9438
:10108000A213222AA32AB42AC52AD62AE72AF82A92
:10109000192B2D813E8140E050E060E070E080E05F
:1010A00090E007E20E94A213222AA32AB42AC52AAA
:1010B000D62AE72AF82A192BEB81FC819F0140E010
:1010C00050E060E070E080E090E00AE20E94A2134D
:1010D000222AA32AB42AC52AD62AE72AF82A192BB3
:1010E00029813A8140E050E060E070E080E090E0EB
:1010F0000DE20E94A213222AA32AB42AC52AD62AC4
:10110000E72AF82A192B88249924222D3A2D4B2DD1
:101110005C2D6D2D7E2D8F2D912F082D0E94231378
:10112000277019F021E030E00DC083E090E0880ED8
:10113000991E90E38916910441F781E08093DC01C8
:1011400020E030E0C9016C960FB6F894DEBF0FBE08
:10115000CDBFCF91DF911F910F91FF90EF90DF9066
:10116000CF90BF90AF909F908F907F906F905F9047
:101170004F903F902F900895FC01009719F422E0C2
:1011800030E013C08281813021F48081618140E0B0
:1011900008C0882319F023E030E007C08081618116
:1011A00041E00E94080C21E030E0C9010895FC01F3
:1011B000009719F422E030E013C08281813021F4DD
:1011C0008081618141E008C0882319F023E030E08C
:1011D00007C08081618140E00E94080C21E030E07E
:1011E000C9010895FF920F931F93CF93DF93009748
:1011F00019F402E010E028C0EC01FF248881698125
:1012000041E00E949C0B8C018A81813021F48B810A
:101210008130C1F409C08823A9F48B81813021F485
:101220008881698140E003C08881698141E00E9432
:10123000080C0115110541F4F394249683E0F81687
:10124000E9F602C003E010E0C801DF91CF911F91E1
:101250000F91FF900895CF92DF92EF92FF920F933C
:101260001F93DF93CF9300D0CDB7DEB78C016B0116
:10127000FC01818190E028EE33E0829F7001839F22
:10128000F00C929FF00C11248081BE016F5F7F4FA4
:101290000E94150AF8018281813089F4B70180E04B
:1012A00090E029813A8140E050E00E94DD1B3AE065
:1012B00096958795779567953A95D1F712C08230C4
:1012C00019F023E030E010C0B70180E090E0298100
:1012D0003A8140E050E00E94DD1B672F782F892F74
:1012E0009927CB0120E030E06AE070E00E94FC1B0F
:1012F000F6016083C9010F900F90CF91DF911F918C
:101300000F91FF90EF90DF90CF900895FC01AB011B
:10131000009749F06115710531F0808161810E946B
:10132000740C9C0102C022E030E0C9010895CF9303
:10133000DF93EC01009719F422E030E00BC08881C4
:10134000698140E00E949C0B888169814A810E94EA
:10135000080C9C01C901DF91CF91089587B1806489
:101360008F7587B986B18768877F86B980E090E0FE
:101370000895379A80E090E00895379880E090E0F3
:101380000895339A80E090E00895339880E090E0EB
:10139000089535988430F9F0853038F4823099F02A
:1013A0008330A8F4813049F40BC08630E1F08630F8
:1013B000B0F08730E1F08830F1F026E030E020C076
:1013C00080B78F711AC080B780628F7316C080B7E4
:1013D0008F71806412C080B780668F770EC080B72F
:1013E0008F7980680AC080B78F71806A06C080B725
:1013F0008F7D806C02C080B7806E80BF20E030E0BF
:10140000359AC9010895359880E090E00895982FA5
:10141000883018F025E030E006C086B1887F892B3F
:1014200086B920E030E0C9010895982FFB016115CD
:10143000710519F422E030E038C08091DF01882383
:1014400019F028E030E031C087B1807E892B87B960
:10145000369A80E090E0A0E0B0E003C00196A11DC4
:10146000B11D26B124FF06C08055934CA040B0406A
:1014700051F417C0803523EC920720E0A20720E04A
:10148000B20761F70EC0206126B984B145B1342F8F
:1014900020E090E0282B392B3183208320E030E0BE
:1014A00002C027E030E01092DF01C9010895982FB3
:1014B0006115710509F141155105F1F08091DF01C8
:1014C000882319F028E030E019C081E08093DF0123
:1014D0001092E2017093DE016093DD015093E1010F
:1014E0004093E00187B1807E892B87B986B18864FB
:1014F00086B920E030E002C022E030E0C901089562
:10150000FC010097A9F1A081B181109789F1228196
:1015100033812115310561F1458156814115510510
:1015200039F18091DF01882319F028E030E022C0F2
:1015300081E08093DF013093DE012093DD01B093E1
:10154000E401A093E30184818093E5015093E101DC
:101550004093E0011092E60187B1807E87B99C91AB
:10156000892B87B986B1886486B920E030E002C053
:1015700022E030E0C90108951F920F920FB60F923A
:1015800011242F933F934F935F936F937F938F9388
:101590009F93AF93BF93EF93FF938091E201E0910C
:1015A000DD01F091DE01882351F424B145B1942F7F
:1015B00080E030E0822B932B9183808312C024B192
:1015C00045B1942F80E030E0822B932B9183808370
:1015D0009091E6019F5F9093E6018091E501981755
:1015E00049F41092DF01E091E001F091E1010995E9
:1015F00033980DC087B1807E87B9E091E301F09107
:10160000E401E90FF11D9081892B87B9369AFF918A
:10161000EF91BF91AF919F918F917F916F915F916A
:101620004F913F912F910F900FBE0F901F901895E3
:101630009FEF9ABB8FE287BB94BB82E481BB82E0C1
:101640008BBB18BA15BA84E182BB80E090E00895A4
:10165000843018F023E030E012C0813049F081304E
:1016600028F0823039F0833041F406C06ABB05C0EF
:1016700067BB03C064BB01C061BB20E030E0C901AF
:101680000895843018F023E030E012C0813049F032
:10169000813028F0823039F0833041F406C06BBBD2
:1016A00005C068BB03C065BB01C062BB20E030E081
:1016B000C9010895FB016115710519F422E030E0BC
:1016C00018C0843018F023E030E013C0813049F0B6
:1016D000813028F0823039F0833049F406C089B374
:1016E00005C086B303C083B301C080B3808320E00C
:1016F00030E0C9010895843018F023E030E01AC0CA
:10170000813059F0813028F0823059F0833081F4F3
:101710000CC08BB380958BBB0BC088B3809588BB06
:1017200007C085B3809585BB03C082B3809582BB1B
:1017300020E030E0C9010895843008F065C06830C9
:1017400008F062C0423008F05FC08130E1F08130C3
:1017500028F0823079F1833051F541C08AB321E01D
:1017600030E0062E02C0220F331F0A94E2F72095C4
:101770002823842F90E002C0880F991F6A95E2F712
:10178000282B2ABB14C087B321E030E0062E02C00C
:10179000220F331F0A94E2F720952823842F90E02C
:1017A00002C0880F991F6A95E2F7282B27BB20E01B
:1017B00030E02CC084B321E030E0062E02C0220FBE
:1017C000331F0A94E2F720952823842F90E002C06B
:1017D000880F991F6A95E2F7282B24BBE8CF81B3C5
:1017E00021E030E0062E02C0220F331F0A94E2F7F8
:1017F00020952823842F90E002C0880F991F6A95B6
:10180000E2F7282B21BBD3CF23E030E0C9010895B4
:10181000843008F065C0683008F062C0423008F0DB
:101820005FC08130E1F0813028F0823079F183307F
:1018300051F541C08BB321E030E0062E02C0220FEB
:10184000331F0A94E2F720952823842F90E002C0EA
:10185000880F991F6A95E2F7282B2BBB14C088B319
:1018600021E030E0062E02C0220F331F0A94E2F777
:1018700020952823842F90E002C0880F991F6A9535
:10188000E2F7282B28BB20E030E02CC085B321E014
:1018900030E0062E02C0220F331F0A94E2F7209593
:1018A0002823842F90E002C0880F991F6A95E2F7E1
:1018B000282B25BBE8CF82B321E030E0062E02C002
:1018C000220F331F0A94E2F720952823842F90E0FB
:1018D00002C0880F991F6A95E2F7282B22BBD3CF4D
:1018E00023E030E0C9010895FA014115510519F4CA
:1018F00022E030E021C08430E8F46830D8F4813050
:1019000099F0813028F0823089F0833051F410C092
:1019100089B390E002C0959587956A95E2F781704A
:10192000808320E030E008C086B3F3CF83B3F1CFEB
:1019300080B3EFCF23E030E0C9010895843018F080
:1019400023E030E036C0813091F0813028F08230E1
:10195000C9F0833061F521C02BB381E090E002C073
:10196000880F991F6A95E2F728272BBB20C028B360
:1019700081E090E002C0880F991F6A95E2F728275E
:1019800028BB15C025B381E090E002C0880F991FE5
:101990006A95E2F7282725BB0AC022B381E090E0D0
:1019A00002C0880F991F6A95E2F7282722BB20E022
:1019B00030E0C9010895DC01009719F422E030E01D
:1019C0005EC0FC01329612968C9112978835F1F424
:1019D0008181813061F0813038F0823071F0833064
:1019E00079F024E030E014C085B78B7F02C085B762
:1019F000846085BF85B7886008C085B78B7F02C0CB
:101A000085B7846085BF85B7877F85BF20E030E0DC
:101A10008C91883501F511968C911197813061F088
:101A2000813038F0823071F0833079F024E030E09A
:101A300012C085B78E7F02C085B7816085BF85B72C
:101A4000826008C085B78E7F02C085B7816085BF80
:101A500085B78D7F85BFFD01349614968C918835AE
:101A600071F48181882329F0813031F024E030E065
:101A700006C084B78F7B02C084B7806484BFC9016D
:101A80000895262F623008F066C0813009F44BC0FB
:101A90008130D0F1823021F0833009F06FC01BC05B
:101AA00065B7422F50E021E030E0C901042E02C0AA
:101AB000880F991F0A94E2F78095862385BF85B722
:101AC0004F5F5F4F02C0220F331F4A95E2F7209508
:101AD000282325BF4DC065B7422F50E081E090E03C
:101AE0009C01042E02C0220F331F0A94E2F7622BDE
:101AF00065BF25B74F5F5F4F02C0880F991F4A959A
:101B0000E2F78095822325C065B730E041E050E0E0
:101B1000CA01022E02C0880F991F0A94E2F780952D
:101B2000862385BF0DC065B730E041E050E0CA01B3
:101B3000022E02C0880F991F0A94E2F7682B65BF36
:101B400085B72F5F3F4F02C0440F551F2A95E2F71C
:101B5000842B85BF0DC0623019F023E030E010C047
:101B6000882319F0813051F406C084B78F7B84BF7D
:101B700020E030E005C084B78064F9CF24E030E095
:101B8000C9010895813051F0813028F0823049F048
:101B900023E030E00BC08BB7806405C08BB7806852
:101BA00002C08BB780628BBF20E030E0C90108958E
:101BB000813051F0813028F0823049F023E030E06C
:101BC0000BC08BB78F7B05C08BB78F7702C08BB7ED
:101BD0008F7D8BBF20E030E0C9010895813051F046
:101BE000813028F0823049F023E030E00BC08AB722
:101BF000806405C08AB7806802C08AB780628ABFE5
:101C000020E030E0C9010895FB01813069F08130A6
:101C100028F0823071F023E030E013C08BB782955A
:101C200086958695837009C08BB7881F8827881F83
:101C300005C08BB78295869587708170808320E080
:101C400030E0C9010895009719F422E030E00FC098
:101C5000633018F023E030E00AC0E62FF0E0EE0F2A
:101C6000FF1FE951FE4F9183808320E030E0C901DE
:101C700008951F920F920FB60F9211242F933F9346
:101C80004F935F936F937F938F939F93AF93BF9384
:101C9000EF93FF93E091E701F091E801309721F095
:101CA000099580E00E94EE0DFF91EF91BF91AF91F9
:101CB0009F918F917F916F915F914F913F912F9164
:101CC0000F900FBE0F901F9018951F920F920FB696
:101CD0000F9211242F933F934F935F936F937F93B2
:101CE0008F939F93AF93BF93EF93FF93E091E9019D
:101CF000F091EA01309721F0099581E00E94EE0D04
:101D0000FF91EF91BF91AF919F918F917F916F91D3
:101D10005F914F913F912F910F900FBE0F901F90A9
:101D200018951F920F920FB60F9211242F933F9385
:101D30004F935F936F937F938F939F93AF93BF93D3
:101D4000EF93FF93E091EB01F091EC01309721F0DC
:101D5000099582E00E94EE0DFF91EF91BF91AF9146
:101D60009F918F917F916F915F914F913F912F91B3
:101D70000F900FBE0F901F9018958FB780688FBF80
:101D800008958FB78F778FBF0895EF92FF920F93CB
:101D90001F93CF93DF93EC016FB9009719F422E002
:101DA00030E07AC050E030E090E040E060E070E089
:101DB000E0E0A0E0779B1FC0AA2309F06BC0EE23F0
:101DC00009F068C0772309F065C0662309F062C096
:101DD000442309F05FC0923008F05CC0913009F0F4
:101DE00054C0393308F056C0383309F04EC050386B
:101DF00008F050C04AC0E52EE39481E0E51608F0F3
:101E000080E0F82EF30E81E0F31608F080E0082F52
:101E1000090F81E0091708F080E0182F140F81E006
:101E2000141708F080E0B82FB60F81E0B61708F05D
:101E300080E0F82FF70F81E0F71708F080E08E0FB1
:101E400021E08E1708F020E05E2D3F2D902F412FCE
:101E50006B2F7F2FE82FA20F513809F0ABCF38330B
:101E600009F0A8CF013009F0A5CF112309F0A2CFC6
:101E7000BB2309F09FCFFF2309F09CCF882309F0F3
:101E800099CFAA2309F096CF05C08FB1888320E0AF
:101E900030E002C027E030E0C901DF91CF911F910F
:101EA0000F91FF90EF900895009789F0411551052B
:101EB00071F06093F1019093EE018093ED015093E6
:101EC000F0014093EF016F9A20E030E002C022E081
:101ED00030E0C90108958FB1E091ED01F091EE017C
:101EE0008083E091EF01F091F001309709F00995BE
:101EF00008956E9A6C9881E067E040E00E949C0B28
:101F000081E065E040E00E949C0B81E066E041E0FA
:101F10000E949C0B81E064E040E00E949C0B81E009
:101F200064E040E00E94080C6D9A6B986A9A689A87
:101F30006998709880E090E0089583B7887F83BFA8
:101F400083B7836083BF83B7806483BF83B7877F92
:101F500083BF83B78F7E83BF83B7806283BF80E0F8
:101F600090E0089582BF80E090E008958CBF80E00B
:101F700090E00895FC01009719F422E030E004C0DD
:101F800082B7808320E030E0C901089581E090E0CD
:101F90000895DF92EF92FF920F931F937B018C01C4
:101FA00020E030E040E050E00E942D188823BCF192
:101FB000C801B70120E030E048EC52E40E948D18DF
:101FC00018166CF1C801B70120E030E048EC52E48B
:101FD0000E949D17882319F4DD24DA9401C0DD24C2
:101FE000C801B70120E030E048EC52E40E94F1164D
:101FF0007B018C016D2D70E0882777FD8095982FEF
:102000000E94BD189B01AC01C801B7010E94F715E1
:102010000E942114D61ADCBE20E030E002C023E08A
:1020200030E0C9011F910F91FF90EF90DF9008956C
:102030008EB5887F8EBD8EB585608EBD8FB58E7F47
:102040008FBD8FB58D7F8FBD8EB588608EBD8EB5EF
:102050008F7E8EBD8FB580648FBD8FB58F778FBD1E
:102060008FB580618FBD8FB58F7D8FBD89B78B7F19
:1020700089BF89B78F7E89BF89B7886089BF80E0B3
:1020800090E008959DBD8CBD80E090E0089520E82B
:102090008130920718F023E030E004C09BBD8ABD78
:1020A00020E030E0C901089520E88130920718F05F
:1020B00023E030E004C09BBD8ABD20E030E0C901D0
:1020C0000895FC01009719F422E030E006C08CB5B9
:1020D0009DB59183808320E030E0C901089580E0C0
:1020E00090E0089585B5887F85BD85B5836085BD01
:1020F00085B5806485BD85B5886085BD85B58F7ED5
:1021000085BD85B5806285BD80E090E0089584BD81
:1021100080E090E00895FC01009719F422E030E09F
:1021200004C084B5808320E030E0C901089583BDF8
:1021300080E090E0089581E090E00895DF92EF92D2
:10214000FF920F931F937B018C0120E030E040E071
:1021500050E00E942D188823B4F1C801B70120E097
:1021600030E048EC52E40E948D18181664F1C80162
:10217000B70120E030E048EC52E40E949D1788232C
:1021800019F4DD24DA9401C0DD24C801B70120E090
:1021900030E048EC52E40E94F1167B018C016D2D79
:1021A00070E0882777FD8095982F0E94BD189B01CD
:1021B000AC01C801B7010E94F7150E94211463BD4C
:1021C00020E030E002C023E030E0C9011F910F9110
:1021D000FF90EF90DF90089583B7887F83BF80E002
:1021E00090E008956115710519F422E030E00FC008
:1021F000883018F023E030E00AC0E82FF0E0EE0F5E
:10220000FF1FEE50FE4F7183608320E030E0C90174
:1022100008951F920F920FB60F9211242F933F93A0
:102220004F935F936F937F938F939F93AF93BF93DE
:10223000EF93FF93E091F201F091F301309751F1A8
:102240008091060290910702A0910802B0910902C4
:102250000196A11DB11D8093060290930702A093E1
:102260000802B093090220910E0230910F024091B2
:1022700010025091110282179307A407B50751F479
:1022800010920602109207021092080210920902A0
:1022900012BE0995FF91EF91BF91AF919F918F91E0
:1022A0007F916F915F914F913F912F910F900FBE52
:1022B0000F901F9018951F920F920FB60F92112436
:1022C0002F933F934F935F936F937F938F939F933E
:1022D000AF93BF93EF93FF93E091F601F091F70175
:1022E000309759F180910A0290910B02A0910C0253
:1022F000B0910D020196A11DB11D80930A02909329
:102300000B02A0930C02B0930D02209112023091A7
:102310001302409114025091150282179307A407EB
:10232000B50759F410920A0210920B0210920C0297
:1023300010920D021DBC1CBC0995FF91EF91BF913D
:10234000AF919F918F917F916F915F914F913F914D
:102350002F910F900FBE0F901F9018951F920F9204
:102360000FB60F9211242F933F934F935F936F9368
:102370007F938F939F93AF93BF93EF93FF93E091DE
:10238000FE01F091FF01309751F18091020290918E
:102390000302A0910402B09105020196A11DB11D96
:1023A0008093020290930302A0930402B09305026B
:1023B0002091160230911702409118025091190293
:1023C00082179307A407B50751F4109202021092E6
:1023D0000302109204021092050214BC0995FF91A9
:1023E000EF91BF91AF919F918F917F916F915F918D
:1023F0004F913F912F910F900FBE0F901F90189506
:102400001F920F920FB60F9211242F933F934F9369
:102410005F936F937F938F939F93AF93BF93EF934C
:10242000FF93E091F401F091F501309761F1809113
:10243000060290910702A0910802B091090201964C
:10244000A11DB11D8093060290930702A09308027C
:10245000B093090220910E0230910F0240911002B8
:102460005091110282179307A407B50760F080917D
:102470001A028CBF109206021092070210920802F4
:10248000109209020995FF91EF91BF91AF919F9131
:102490008F917F916F915F914F913F912F910F900D
:1024A0000FBE0F901F9018951F920F920FB60F92AC
:1024B00011242F933F934F935F936F937F938F9349
:1024C0009F93AF93BF93EF93FF93E091FA01F09145
:1024D000FB01309709F00995FF91EF91BF91AF9102
:1024E0009F918F917F916F915F914F913F912F912C
:1024F0000F900FBE0F901F9018951F920F920FB65E
:102500000F9211242F933F934F935F936F937F9379
:102510008F939F93AF93BF93EF93FF93E091F80155
:10252000F091F901309709F00995FF91EF91BF9172
:10253000AF919F918F917F916F915F914F913F915B
:102540002F910F900FBE0F901F9018951F920F9212
:102550000FB60F9211242F933F934F935F936F9376
:102560007F938F939F93AF93BF93EF93FF93E091EC
:102570000002F0910102309761F180910202909186
:102580000302A0910402B09105020196A11DB11DA4
:102590008093020290930302A0930402B093050279
:1025A00020911602309117024091180250911902A1
:1025B00082179307A407B50760F080911B0283BDC3
:1025C000109202021092030210920402109205026D
:1025D0000995FF91EF91BF91AF919F918F917F915D
:1025E0006F915F914F913F912F910F900FBE0F9080
:1025F0001F9018951F920F920FB60F9211242F93D0
:102600003F934F935F936F937F938F939F93AF937A
:10261000BF93EF93FF93E091FC01F091FD013097A0
:1026200009F00995FF91EF91BF91AF919F918F9123
:102630007F916F915F914F913F912F910F900FBEBE
:102640000F901F901895EF92FF920F93DF93CF9307
:10265000CDB7DEB760970FB6F894DEBF0FBECDBF23
:10266000A82F002309F461C07E010894E11CF11C2D
:1026700088E0F70111928A95E9F729833A834B8321
:102680005C836D837E83AF83988780E2801BE82F15
:10269000FF27E7FDF0954D815E816F8178851816E3
:1026A00084F01D861E861F86188A882799278E1B10
:1026B0009F0B04C076956795579547958A95D2F7F5
:1026C00028C0202F332727FD3095DB01CA01022EB9
:1026D00004C0B695A795979587950A94D2F78D87EC
:1026E0009E87AF87B88B04C0440F551F661F771FA6
:1026F000EA95D2F789819A81AB81BC8104C0B695F5
:10270000A795979587952A95D2F7482B592B6A2B31
:102710007B2B49875A876B877C8729853A854B8530
:102720005C856D857E85AF8598898A2F60960FB60A
:10273000F894DEBF0FBECDBFCF91DF910F91FF9018
:10274000EF900895EF92FF920F93DF93CF93CDB761
:10275000DEB760970FB6F894DEBF0FBECDBFA82FCF
:10276000002309F461C07E010894E11CF11C88E09B
:10277000F70111928A95E9F729833A834B835C83A9
:102780006D837E83AF83988780E2801BE82FFF27CD
:10279000E7FDF09549815A816B817C81181684F0A0
:1027A00019861A861B861C86882799278E1B9F0BE5
:1027B00004C0440F551F661F771F8A95D2F728C0A3
:1027C000202F332727FD3095DB01CA01022E04C0DC
:1027D000880F991FAA1FBB1F0A94D2F789879A876F
:1027E000AB87BC8704C07695679557954795EA9562
:1027F000D2F78D819E81AF81B88504C0880F991F63
:10280000AA1FBB1F2A95D2F7482B592B6A2B7B2B6B
:102810004D875E876F87788B29853A854B855C85E8
:102820006D857E85AF8598898A2F60960FB6F8945E
:10283000DEBF0FBECDBFCF91DF910F91FF90EF9024
:102840000895EF92FF920F931F937B018C0120E07C
:1028500030E040E05FE40E942D1888238CF0C8012E
:10286000B70120E030E040E05FE40E9499150E944B
:102870001B199B01AC01205030404040504806C01D
:10288000C801B7010E941B199B01AC01B901CA0123
:102890001F910F91FF90EF900895A0E0B0E0E3E565
:1028A000F4E10C944D1CDC012B01FA019C91923057
:1028B00008F439C1EB018881823008F433C19430C7
:1028C00069F4843009F02FC111969C911197898188
:1028D000981709F428C1A9ECB0E025C1843009F4A7
:1028E00021C18230A9F4923009F01DC19A01AD01D5
:1028F00088E0EA010990AE01E90109929E01815048
:10290000C1F7E201898111969C918923818308C1D5
:10291000923009F407C112962D903C901397EB0169
:102920008A819B811496AD90BD90CD90DC901797D5
:10293000EC80FD800E811F819101281B390BB901AC
:1029400037FF04C066277727621B730B603271055F
:102950000CF061C0121613066CF537014801062E03
:1029600004C096948794779467940A94D2F721E0F0
:1029700030E040E050E004C0220F331F441F551FD9
:102980006A95D2F721503040404050402E213F21DF
:1029900040235123211531054105510521F021E046
:1029A00030E040E050E079018A01E628F728082964
:1029B00019293CC0232BD1F1260E371E35014601C3
:1029C000062E04C096948794779467940A94D2F75D
:1029D00021E030E040E050E004C0220F331F441FEC
:1029E000551F6A95D2F721503040404050402A216F
:1029F0003B214C215D21211531054105510521F077
:102A000021E030E040E050E059016A01A628B728F3
:102A1000C828D9280BC0821593052CF01C01AA24C4
:102A2000BB24650103C0EE24FF24870111969C910D
:102A3000D20111968C91981709F445C0992339F069
:102A4000A80197012A193B094C095D0906C0A60196
:102A500095012E193F09400B510B57FD08C01182FB
:102A60003382228224833583468357831DC081E0CD
:102A700081833382228288279927DC01821B930B72
:102A8000A40BB50B84839583A683B7830DC0220F57
:102A9000331F441F551F2483358346835783828108
:102AA0009381019793838283248135814681578165
:102AB000DA01C9010197A109B1098F5F9F4FAF4F9B
:102AC000BF4328F30BC0918333822282EA0CFB1CA4
:102AD0000C1D1D1DE482F5820683178383E080832D
:102AE000248135814681578157FF1AC0C901AA2721
:102AF00097FDA095BA2F81709070A070B070569518
:102B0000479537952795822B932BA42BB52B848340
:102B10009583A683B7838281938101969383828371
:102B2000DF0101C0D201CD01CDB7DEB7E2E10C94E7
:102B3000691CA0E2B0E0EFE9F5E10C94591C69834F
:102B40007A838B839C832D833E834F835887E9E070
:102B5000EE2EF12CEC0EFD1ECE010196B7010E9467
:102B60000C1B8E010F5E1F4FCE010596B8010E940F
:102B70000C1B8A8991E089278A8BC701B801AE01B5
:102B8000475E5F4F0E944D140E94371AA096E6E000
:102B90000C94751CA0E2B0E0E0EDF5E10C94591C3A
:102BA00069837A838B839C832D833E834F835887ED
:102BB000F9E0EF2EF12CEC0EFD1ECE010196B701CF
:102BC0000E940C1B8E010F5E1F4FCE010596B801AF
:102BD0000E940C1BC701B801AE01475E5F4F0E9407
:102BE0004D140E94371AA096E6E00C94751CA0E2E2
:102BF000B0E0EDEFF5E10C944D1C69837A838B8393
:102C00009C832D833E834F835887CE010196BE015E
:102C1000675F7F4F0E940C1BCE010596BE016F5E61
:102C20007F4F0E940C1B9985923088F089898230F1
:102C3000C8F0943019F4823051F404C0843029F47F
:102C4000923081F489EC90E0C6C0923049F420E0E3
:102C50009A858A89981321E02A87CE010996BBC0FC
:102C6000823049F420E09A858A89981321E02A8BE2
:102C7000CE014196B0C02D843E844F8458886D8823
:102C80007E888F88988CEE24FF248701AA24BB2499
:102C9000650140E050E060E070E0E0E0F0E0C1019C
:102CA00081709070892BE9F0E60CF71C081D191D46
:102CB0009A01AB012A0D3B1D4C1D5D1D80E090E08B
:102CC000A0E0B0E0E614F7040805190520F481E05F
:102CD00090E0A0E0B0E0BA01A901480F591F6A1FB7
:102CE0007B1FAA0CBB1CCC1CDD1C97FE08C081E01E
:102CF00090E0A0E0B0E0A82AB92ACA2ADB2A3196DF
:102D0000E032F10549F0660C771C881C991C56943A
:102D1000479437942794C3CFFA85EA892B893C8955
:102D20008B859C85280F391F2E5F3F4F17C0CA0126
:102D300081709070892B61F016950795F794E79450
:102D400080E090E0A0E0B0E8E82AF92A0A2B1B2BEB
:102D500076956795579547952F5F3F4F77FDE7CF5E
:102D60000CC0440F551F661F771F17FD4160EE0C06
:102D7000FF1C001F111F21503040403090E05907C8
:102D800090E0690790E4790760F32B8F3C8FDB01BB
:102D9000CA018F779070A070B07080349105A10542
:102DA000B10561F447FD0AC0E114F1040105110504
:102DB00029F0405C5F4F6F4F7F4F40781A8EFE17AF
:102DC00011F081E08A8F4D8F5E8F6F8F78A383E043
:102DD000898FCE0149960E94371AA096E2E10C94A1
:102DE000691CA8E1B0E0E7EFF6E10C94551C69839B
:102DF0007A838B839C832D833E834F835887B9E0EE
:102E0000EB2EF12CEC0EFD1ECE010196B7010E94B7
:102E10000C1B8E010F5E1F4FCE010596B8010E945C
:102E20000C1B2985223008F47EC03989323010F419
:102E3000B8017CC08A859A8989278A87243011F055
:102E4000223031F4231709F06EC069EC70E06EC0D7
:102E5000343039F41D861E861F86188A1C861B8610
:102E600004C0323021F484E08987B7015FC02B852C
:102E70003C858B899C89281B390B3C872B87ED84EB
:102E8000FE840F851889AD88BE88CF88D88CEA1457
:102E9000FB040C051D0540F4EE0CFF1C001F111F68
:102EA000215030403C872B8720E030E040E050E06C
:102EB00080E090E0A0E0B0E460E070E0EA14FB04A1
:102EC0000C051D0540F0282B392B4A2B5B2BEA18EB
:102ED000FB080C091D09B695A79597958795EE0CEB
:102EE000FF1C001F111F6F5F7F4F6F31710531F79E
:102EF000DA01C9018F779070A070B07080349105AD
:102F0000A105B10561F427FD0AC0E114F104010532
:102F1000110529F0205C3F4F4F4F5F4F20782D87E0
:102F20003E874F87588BBE01675F7F4FCB010E9462
:102F3000371A6896EAE00C94711CA8E1B0E0E3EA65
:102F4000F7E10C94591C69837A838B839C832D83CE
:102F50003E834F83588789E0E82EF12CEC0EFD1E4E
:102F6000CE010196B7010E940C1B8E010F5E1F4F10
:102F7000CE010596B8010E940C1B8985823040F075
:102F80008989823028F0C701B8010E94841B01C0E2
:102F900081E06896E6E00C94751CA8E1B0E0E3EDF2
:102FA000F7E10C94591C69837A838B839C832D836E
:102FB0003E834F83588789E0E82EF12CEC0EFD1EEE
:102FC000CE010196B7010E940C1B8E010F5E1F4FB0
:102FD000CE010596B8010E940C1B8985823040F015
:102FE0008989823028F0C701B8010E94841B01C082
:102FF00081E06896E6E00C94751CA8E1B0E0E3E09F
:10300000F8E10C94591C69837A838B839C832D830C
:103010003E834F83588789E0E82EF12CEC0EFD1E8D
:10302000CE010196B7010E940C1B8E010F5E1F4F4F
:10303000CE010596B8010E940C1B8985823040F0B4
:103040008989823028F0C701B8010E94841B01C021
:103050008FEF6896E6E00C94751CA8E1B0E0E3E31E
:10306000F8E10C94591C69837A838B839C832D83AC
:103070003E834F83588789E0E82EF12CEC0EFD1E2D
:10308000CE010196B7010E940C1B8E010F5E1F4FEF
:10309000CE010596B8010E940C1B8985823040F054
:1030A0008989823028F0C701B8010E94841B01C0C1
:1030B0008FEF6896E6E00C94751CA8E1B0E0E3E6BB
:1030C000F8E10C94591C69837A838B839C832D834C
:1030D0003E834F83588789E0E82EF12CEC0EFD1ECD
:1030E000CE010196B7010E940C1B8E010F5E1F4F8F
:1030F000CE010596B8010E940C1B8985823040F0F4
:103100008989823028F0C701B8010E94841B01C060
:1031100081E06896E6E00C94751CA8E1B0E0E3E974
:10312000F8E10C94591C69837A838B839C832D83EB
:103130003E834F83588789E0E82EF12CEC0EFD1E6C
:10314000CE010196B7010E940C1B8E010F5E1F4F2E
:10315000CE010596B8010E940C1B8985823040F093
:103160008989823028F0C701B8010E94841B01C000
:1031700081E06896E6E00C94751CA8E0B0E0E3EC12
:10318000F8E10C94561C9B01AC0183E08983DA01C1
:10319000C9018827B7FD83959927AA27BB27B82E91
:1031A000211531054105510519F482E089833AC0A2
:1031B0008823A9F0203080E0380780E0480780E8C5
:1031C000580729F460E070E080E09FEC30C0EE2406
:1031D000FF248701E21AF30A040B150B02C07901E0
:1031E0008A018EE1C82ED12CDC82CB82ED82FE8258
:1031F0000F831887C801B7010E94E81901971816B4
:10320000190684F4082E04C0EE0CFF1C001F111FC9
:103210000A94D2F7ED82FE820F831887C81AD90A62
:10322000DC82CB82BA82CE0101960E94371A2896A0
:10323000E9E00C94721CACE0B0E0E1E2F9E10C943E
:103240005D1C69837A838B839C83CE010196BE01CA
:103250006B5F7F4F0E940C1B8D81823061F1823049
:1032600050F1843021F48E81882351F12EC02F81BA
:10327000388537FD20C06E812F3131051CF0662363
:10328000F9F023C08EE190E0821B930B29853A85EB
:103290004B855C8504C056954795379527958A954B
:1032A000D2F76623B1F050954095309521953F4F68
:1032B0004F4F5F4F0EC020E030E040E050E009C0CB
:1032C0002FEF3FEF4FEF5FE704C020E030E040E03A
:1032D00050E8B901CA012C96E2E00C94791CA8E0F0
:1032E000B0E0E5E7F9E10C94551C7B018C01611518
:1032F00071058105910519F482E0898360C083E03E
:1033000089838EE1C82ED12CDC82CB82ED82FE82B5
:103310000F831887C801B7010E94E819FC01319793
:10332000F7FF3BC0222733272E1B3F0B57016801B5
:10333000022E04C0D694C794B794A7940A94D2F7E7
:1033400040E050E060E070E081E090E0A0E0B0E0BC
:1033500004C0880F991FAA1FBB1F2A95D2F7019797
:10336000A109B1098E219F21A023B1230097A105B6
:10337000B10521F041E050E060E070E04A295B29AE
:103380006C297D294D835E836F8378878EE190E081
:103390008E1B9F0B9C838B8312C0309781F00E2E67
:1033A00004C0EE0CFF1C001F111F0A94D2F7ED821F
:1033B000FE820F831887CE1ADF0ADC82CB821A8244
:1033C000CE0101960E94371A2896EAE00C94711CEF
:1033D000EF92FF920F931F937B018C0180E0E81620
:1033E00080E0F80681E0080780E0180788F48FEF96
:1033F000E816F1040105110531F028F088E090E0AD
:10340000A0E0B0E017C080E090E0A0E0B0E012C023
:1034100080E0E81680E0F80680E0080781E0180701
:1034200028F088E190E0A0E0B0E004C080E190E006
:10343000A0E0B0E020E230E040E050E0281B390B93
:103440004A0B5B0B04C016950795F794E7948A9591
:10345000D2F7F701EF52FF4F8081281B3109410954
:103460005109C9011F910F91FF90EF900895DF92CC
:10347000EF92FF920F931F93FC01E480F580068189
:103480001781D1808081823048F480E090E0A0E113
:10349000B0E0E82AF92A0A2B1B2BA5C0843009F4D6
:1034A0009FC0823021F4EE24FF24870105C0E1147F
:1034B000F1040105110519F4E0E0F0E096C0628125
:1034C00073819FEF623879070CF05BC022E83FEF11
:1034D000261B370B2A3131052CF020E030E040E08C
:1034E00050E02AC0B801A701022E04C07695679566
:1034F000579547950A94D2F781E090E0A0E0B0E0BC
:1035000004C0880F991FAA1FBB1F2A95D2F70197E5
:10351000A109B1098E219F21A023B1230097A10504
:10352000B10521F081E090E0A0E0B0E09A01AB01AC
:10353000282B392B4A2B5B2BDA01C9018F7790702E
:10354000A070B07080349105A105B10539F427FF52
:1035500009C0205C3F4F4F4F5F4F04C0215C3F4F7D
:103560004F4F5F4FE0E0F0E02030A0E03A07A0E0EE
:103570004A07A0E45A0710F0E1E0F0E079018A017F
:1035800027C06038710564F5FB01E158FF4FD80191
:10359000C7018F779070A070B07080349105A1053D
:1035A000B10539F4E7FE0DC080E490E0A0E0B0E0A2
:1035B00004C08FE390E0A0E0B0E0E80EF91E0A1F1F
:1035C0001B1F17FF05C016950795F794E7943196D2
:1035D00087E016950795F794E7948A95D1F705C08B
:1035E000EE24FF248701EFEFF0E06E2F679566274A
:1035F0006795902F9F77D794DD24D7948E2F86954B
:10360000492F462B582F5D29B701CA011F910F91F1
:10361000FF90EF90DF900895FC01DB014081518124
:103620002281622F6F7770E0221F2227221F938151
:10363000892F880F822B282F30E0991F9927991FF7
:1036400011969C93119721153105A9F54115510546
:103650006105710511F482E037C082E89FEF13968F
:103660009C938E9312979A01AB0167E0220F331F50
:10367000441F551F6A95D1F783E08C930DC0220F2C
:10368000331F441F551F12968D919C9113970197DC
:1036900013969C938E931297203080E0380780E039
:1036A000480780E4580758F314962D933D934D93A3
:1036B0005C93179708952F3F310579F44115510513
:1036C0006105710519F484E08C93089564FF03C0CB
:1036D00081E08C9312C01C9210C02F57304013967B
:1036E0003C932E93129783E08C9387E0440F551FF1
:1036F000661F771F8A95D1F7706414964D935D937A
:103700006D937C93179708951F93DC01FB019C91A7
:10371000923008F447C08081823008F443C094306E
:1037200051F411961C91843099F58181682F70E0D5
:10373000611B71093FC0843021F0923031F4823036
:10374000B9F18181882389F12DC011961C911197BF
:103750008230F1F081811817D9F412962D913C91A5
:103760001397828193818217930794F02817390762
:10377000BCF014968D919D910D90BC91A02D24814B
:10378000358146815781281739074A075B0718F4A6
:10379000112341F00AC082179307A407B50740F42C
:1037A000112319F061E070E005C06FEF7FEF02C0F8
:1037B00060E070E0CB011F910895629FD001739F7C
:1037C000F001829FE00DF11D649FE00DF11D929FBD
:1037D000F00D839FF00D749FF00D659FF00D9927FC
:1037E000729FB00DE11DF91F639FB00DE11DF91F20
:1037F000BD01CF0111240895AA1BBB1B51E107C0D5
:10380000AA1FBB1FA617B70710F0A61BB70B881F70
:10381000991F5A95A9F780959095BC01CD010895FF
:1038200097FB092E05260ED057FD04D014D00AD0E0
:10383000001C38F450954095309521953F4F4F4FDF
:103840005F4F0895F6F790958095709561957F4F3D
:103850008F4F9F4F0895A1E21A2EAA1BBB1BFD019B
:103860000DC0AA1FBB1FEE1FFF1FA217B307E4075F
:10387000F50720F0A21BB30BE40BF50B661F771FB7
:10388000881F991F1A9469F7609570958095909597
:103890009B01AC01BD01CF0108952F923F924F9241
:1038A0005F926F927F928F929F92AF92BF92CF92D0
:1038B000DF92EF92FF920F931F93CF93DF93CDB7D9
:1038C000DEB7CA1BDB0B0FB6F894DEBF0FBECDBF51
:1038D00009942A88398848885F846E847D848C8422
:1038E0009B84AA84B984C884DF80EE80FD800C812B
:1038F0001B81AA81B981CE0FD11D0FB6F894DEBF0E
:0C3900000FBECDBFED010895F894FFCF7D
:10390C000103010401050106010702000201020284
:10391C000203020400070100010101026337383978
:10392C00582F6B52536E473435362D494C4D4E4FF4
:10393C00483132332B4A505141423F302E3D2B4BB4
:10394C004344454630000000000000000000000029
:10395C000000000002000100010601000107010047
:10396C000302005800630063000000000000000028
:10397C00000001020203030303040404040404040E
:10398C0004050505050505050505050505050505DC
:10399C0005060606060606060606060606060606BC
:1039AC0006060606060606060606060606060606AB
:1039BC00060707070707070707070707070707078C
:1039CC00070707070707070707070707070707077B
:1039DC00070707070707070707070707070707076B
:1039EC00070707070707070707070707070707075B
:1039FC00070808080808080808080808080808083C
:103A0C00080808080808080808080808080808082A
:103A1C00080808080808080808080808080808081A
:103A2C00080808080808080808080808080808080A
:103A3C0008080808080808080808080808080808FA
:103A4C0008080808080808080808080808080808EA
:103A5C0008080808080808080808080808080808DA
:103A6C0008080808080808080808080808080808CA
:023A7C00080040
:00000001FF
